{
  "_format": "hh-sol-artifact-1",
  "contractName": "VotingSystem",
  "sourceName": "contracts/VotingSystem.sol",
  "abi": [
    {
      "inputs": [
        {
          "internalType": "address",
          "name": "initialOwner",
          "type": "address"
        }
      ],
      "stateMutability": "nonpayable",
      "type": "constructor"
    },
    {
      "anonymous": false,
      "inputs": [
        {
          "indexed": true,
          "internalType": "uint256",
          "name": "candidateId",
          "type": "uint256"
        },
        {
          "indexed": false,
          "internalType": "string",
          "name": "name",
          "type": "string"
        },
        {
          "indexed": false,
          "internalType": "uint256",
          "name": "number",
          "type": "uint256"
        }
      ],
      "name": "CandidateAdded",
      "type": "event"
    },
    {
      "anonymous": false,
      "inputs": [
        {
          "indexed": false,
          "internalType": "address",
          "name": "voter",
          "type": "address"
        },
        {
          "indexed": false,
          "internalType": "uint256",
          "name": "candidateNumber",
          "type": "uint256"
        }
      ],
      "name": "Voted",
      "type": "event"
    },
    {
      "inputs": [
        {
          "internalType": "string",
          "name": "_name",
          "type": "string"
        },
        {
          "internalType": "uint256",
          "name": "_number",
          "type": "uint256"
        }
      ],
      "name": "addCandidate",
      "outputs": [],
      "stateMutability": "nonpayable",
      "type": "function"
    },
    {
      "inputs": [],
      "name": "admin",
      "outputs": [
        {
          "internalType": "address",
          "name": "",
          "type": "address"
        }
      ],
      "stateMutability": "view",
      "type": "function"
    },
    {
      "inputs": [],
      "name": "candidateCount",
      "outputs": [
        {
          "internalType": "uint256",
          "name": "",
          "type": "uint256"
        }
      ],
      "stateMutability": "view",
      "type": "function"
    },
    {
      "inputs": [
        {
          "internalType": "uint256",
          "name": "",
          "type": "uint256"
        }
      ],
      "name": "candidates",
      "outputs": [
        {
          "internalType": "uint256",
          "name": "id",
          "type": "uint256"
        },
        {
          "internalType": "string",
          "name": "name",
          "type": "string"
        },
        {
          "internalType": "uint256",
          "name": "number",
          "type": "uint256"
        },
        {
          "internalType": "uint256",
          "name": "voteCount",
          "type": "uint256"
        }
      ],
      "stateMutability": "view",
      "type": "function"
    },
    {
      "inputs": [
        {
          "internalType": "uint256",
          "name": "_candidateNumber",
          "type": "uint256"
        }
      ],
      "name": "getCandidate",
      "outputs": [
        {
          "internalType": "uint256",
          "name": "",
          "type": "uint256"
        },
        {
          "internalType": "string",
          "name": "",
          "type": "string"
        },
        {
          "internalType": "uint256",
          "name": "",
          "type": "uint256"
        },
        {
          "internalType": "uint256",
          "name": "",
          "type": "uint256"
        }
      ],
      "stateMutability": "view",
      "type": "function"
    },
    {
      "inputs": [
        {
          "internalType": "address",
          "name": "_voter",
          "type": "address"
        }
      ],
      "name": "verifyVote",
      "outputs": [
        {
          "internalType": "bool",
          "name": "",
          "type": "bool"
        },
        {
          "internalType": "uint256",
          "name": "",
          "type": "uint256"
        }
      ],
      "stateMutability": "view",
      "type": "function"
    },
    {
      "inputs": [
        {
          "internalType": "uint256",
          "name": "_candidateNumber",
          "type": "uint256"
        }
      ],
      "name": "vote",
      "outputs": [],
      "stateMutability": "nonpayable",
      "type": "function"
    },
    {
      "inputs": [
        {
          "internalType": "address",
          "name": "",
          "type": "address"
        }
      ],
      "name": "voters",
      "outputs": [
        {
          "internalType": "bool",
          "name": "hasVoted",
          "type": "bool"
        },
        {
          "internalType": "uint256",
          "name": "candidateNumberVoted",
          "type": "uint256"
        }
      ],
      "stateMutability": "view",
      "type": "function"
    }
  ],
  "bytecode": "0x608060405234801561001057600080fd5b50604051610bdb380380610bdb83398101604081905261002f916100ba565b6001600160a01b0381166100955760405162461bcd60e51b815260206004820152602360248201527f456e64657265636f20646f2061646d696e6973747261646f7220696e76616c6960448201526232379760e91b606482015260840160405180910390fd5b600380546001600160a01b0319166001600160a01b03929092169190911790556100ea565b6000602082840312156100cc57600080fd5b81516001600160a01b03811681146100e357600080fd5b9392505050565b610ae2806100f96000396000f3fe608060405234801561001057600080fd5b50600436106100885760003560e01c8063a3ec138d1161005b578063a3ec138d1461010b578063a9a981a314610138578063e23cec7b1461014f578063f851a4401461016257600080fd5b80630121b93f1461008d5780633477ee2e146100a257806335b8e820146100ce578063607b17b5146100e1575b600080fd5b6100a061009b366004610760565b61018d565b005b6100b56100b0366004610760565b610321565b6040516100c594939291906107bf565b60405180910390f35b6100b56100dc366004610760565b6103d1565b6100f46100ef3660046107eb565b61051e565b6040805192151583526020830191909152016100c5565b6100f46101193660046107eb565b6000602081905290815260409020805460019091015460ff9091169082565b61014160025481565b6040519081526020016100c5565b6100a061015d366004610831565b6105ba565b600354610175906001600160a01b031681565b6040516001600160a01b0390911681526020016100c5565b60008181526001602052604081206002015490036101ea5760405162461bcd60e51b815260206004820152601560248201527421b0b73234b230ba37903730b79032bc34b9ba329760591b60448201526064015b60405180910390fd5b3360009081526020819052604090205460ff161561023e5760405162461bcd60e51b81526020600482015260116024820152702b37ba30b73a32903530903b37ba37ba9760791b60448201526064016101e1565b3361028b5760405162461bcd60e51b815260206004820152601f60248201527f4f20766f74616e74652070726563697361206573746172206c6f6761646f2e0060448201526064016101e1565b604080518082018252600180825260208083018581523360009081528083528581209451855460ff191690151517855590519383019390935584835281905291812060030180549091906102e09084906108fc565b909155505060408051338152602081018390527f4d99b957a2bc29a30ebd96a7be8e68fe50a3c701db28a91436490b7d53870ca4910160405180910390a150565b60016020819052600091825260409091208054918101805461034290610915565b80601f016020809104026020016040519081016040528092919081815260200182805461036e90610915565b80156103bb5780601f10610390576101008083540402835291602001916103bb565b820191906000526020600020905b81548152906001019060200180831161039e57829003601f168201915b5050505050908060020154908060030154905084565b6000818152600160205260408120600201546060908290819081036104305760405162461bcd60e51b815260206004820152601560248201527421b0b73234b230ba37903730b79032bc34b9ba329760591b60448201526064016101e1565b600085815260016020818152604080842081516080810190925280548252928301805491939284019161046290610915565b80601f016020809104026020016040519081016040528092919081815260200182805461048e90610915565b80156104db5780601f106104b0576101008083540402835291602001916104db565b820191906000526020600020905b8154815290600101906020018083116104be57829003601f168201915b5050505050815260200160028201548152602001600382015481525050905080600001518160200151826040015183606001519450945094509450509193509193565b6001600160a01b038116600090815260208190526040812054819060ff1661057d5760405162461bcd60e51b81526020600482015260126024820152712b37ba30b73a32903730b7903b37ba37ba9760711b60448201526064016101e1565b50506001600160a01b0316600090815260208181526040918290208251808401909352805460ff1615158084526001909101549290910182905291565b6003546001600160a01b0316331461062d5760405162461bcd60e51b815260206004820152603060248201527f536f6d656e7465206f2061646d696e6973747261646f7220706f64652072656160448201526f3634bd30b91032b9ba309030b1b0b79760811b60648201526084016101e1565b6000818152600160205260409020600201541561069c5760405162461bcd60e51b815260206004820152602760248201527f4a612065786973746520756d2063616e64696461746f20636f6d206573746520604482015266373ab6b2b9379760c91b60648201526084016101e1565b604080516080810182526002548152602080820185815282840185905260006060840181905285815260019283905293909320825181559251919291908201906106e6908261099e565b506040820151600280830191909155606090920151600390910155805490600061070f83610a5e565b919050555060016002546107239190610a77565b7fc0a81c9aad7f882e7dd72db314924227026255cc5ad0164435df572dec8c804d8383604051610754929190610a8a565b60405180910390a25050565b60006020828403121561077257600080fd5b5035919050565b6000815180845260005b8181101561079f57602081850181015186830182015201610783565b506000602082860101526020601f19601f83011685010191505092915050565b8481526080602082015260006107d86080830186610779565b6040830194909452506060015292915050565b6000602082840312156107fd57600080fd5b81356001600160a01b038116811461081457600080fd5b9392505050565b634e487b7160e01b600052604160045260246000fd5b6000806040838503121561084457600080fd5b823567ffffffffffffffff8082111561085c57600080fd5b818501915085601f83011261087057600080fd5b8135818111156108825761088261081b565b604051601f8201601f19908116603f011681019083821181831017156108aa576108aa61081b565b816040528281528860208487010111156108c357600080fd5b826020860160208301376000602093820184015298969091013596505050505050565b634e487b7160e01b600052601160045260246000fd5b8082018082111561090f5761090f6108e6565b92915050565b600181811c9082168061092957607f821691505b60208210810361094957634e487b7160e01b600052602260045260246000fd5b50919050565b601f82111561099957600081815260208120601f850160051c810160208610156109765750805b601f850160051c820191505b8181101561099557828155600101610982565b5050505b505050565b815167ffffffffffffffff8111156109b8576109b861081b565b6109cc816109c68454610915565b8461094f565b602080601f831160018114610a0157600084156109e95750858301515b600019600386901b1c1916600185901b178555610995565b600085815260208120601f198616915b82811015610a3057888601518255948401946001909101908401610a11565b5085821015610a4e5787850151600019600388901b60f8161c191681555b5050505050600190811b01905550565b600060018201610a7057610a706108e6565b5060010190565b8181038181111561090f5761090f6108e6565b604081526000610a9d6040830185610779565b9050826020830152939250505056fea264697066735822122085b36ab3f1d0cac707f7e345a33acbd86a03580961276ee109c8ba7c61ac505664736f6c63430008140033",
  "linkReferences": {},
  "deployedLinkReferences": {}
}